:020000040800F2
:10000000785E00246D030008414F0008D5450008C4
:10001000F14D000865090008815C0008000000003F
:10002000000000000000000000000000AD02000819
:10003000CD0D00080000000009030008A9510008C8
:100040008703000887030008870300088703000868
:100050008703000887030008870300088703000858
:100060008703000887030008870300086909000860
:100070008703000887030008870300088703000838
:100080008703000887030008870300088703000828
:100090008703000887030008870300088703000818
:1000A0008703000887030008870300088703000808
:1000B00087030008870300088703000887030008F8
:1000C00087030008870300088703000887030008E8
:1000D000870300088703000887030008755C000891
:1000E000870300088703000800000000870300085A
:1000F00087030008870300088703000887030008B8
:1001000087030008870300088703000887030008A7
:100110008703000887030008870300088703000897
:100120008703000887030008870300088703000887
:100130008703000887030008870300088703000877
:1001400000000000000000000000000000000000AF
:100150008703000887030008870300088703000857
:100160008703000887030008870300088703000847
:100170008703000887030008870300088703000837
:100180008703000887030008870300088703000827
:100190008703000887030008870300088703000817
:1001A0008703000887030008870300088703000807
:1001B00087030008870300088703000887030008F7
:1001C00087030008870300088703000887030008E7
:1001D00087030008870300088703000887030008D7
:1001E00087030008870300088703000887030008C7
:1001F00087030008870300088703000887030008B7
:1002000087030008870300088703000887030008A6
:1002100087030008870300084D5300088703000880
:100220008703000887030008870300080000000018
:100230008703000887030008000000008703000808
:10024000870300084D0900085909000887030008C2
:100250008703000887030008870300088703000856
:100260008703000887030008870300088703000846
:100270008703000887030008D94500080000000034
:1002800087030008870300088703000800000000B8
:100290000000000087030008DFF80CD000F0D4FA5B
:1002A00000480047156E0008785E00242C4B196842
:1002B0000868B0E8F04F80F30988BFF36F8F4FF004
:1002C000000080F3118870470000000008480068B3
:1002D000006880F308884FF0000080F3148862B64D
:1002E00061B6BFF34F8FBFF36F8F00DF00BF00BF5A
:1002F00008ED00E0DFF80C00016841F470010160D6
:10030000704700BF88ED00E0EFF30980BFF36F8F07
:10031000134B1A681EF0100F08BF20ED108A20E959
:10032000F04F106009B44FF0500080F31188BFF314
:100330004F8FBFF36F8F07F091FD4FF0000080F3F8
:10034000118809BC19680868B0E8F04F1EF0100F5A
:1003500008BFB0EC108A80F30988BFF36F8F704735
:1003600040080024EFF305807047000006488047EE
:1003700006480047FEE7FEE7FEE7FEE7FEE7FEE78A
:10038000FEE7FEE7FEE7FEE771520008990200086B
:100390002DE9F05F0546002092469B4688460646BA
:1003A000814640241BE0284641464746224600F04D
:1003B00082F853465A46C01A914110D31146184646
:1003C000224600F069F82D1A67EB01084F462246D5
:1003D0000120002100F060F817EB00094E41201EBB
:1003E000A4F10104DFDC484631462A464346BDE815
:1003F000F09F40EA01039B0703D009E008C9121FE0
:1004000008C0042AFAD203E011F8013B00F8013BCE
:10041000521EF9D27047D2B201E000F8012B491EFA
:10042000FBD270470022F6E710B513460A46044691
:100430001946FFF7F0FF204610BD30B505462A46A5
:100440000B4612F8010B13F8014B08B1A042F8D08B
:100450001CB1002802D06D1CF1E7284630BD421CBB
:1004600010F8011B0029FBD1801A704730B50B46EC
:10047000014600202022012409E021FA02F59D42D4
:1004800005D303FA02F5491B04FA02F52844151EA8
:10049000A2F10102F1DC30BD202A04DB203A00FA8F
:1004A00002F1002070479140C2F1200320FA03F3CB
:1004B000194390407047202A04DB203A21FA02F0C9
:1004C0000021704721FA02F3D040C2F1200291408E
:1004D0000843194670472DE9FE4F804681EA030024
:1004E000C00F0C46009021F0004123F00045B8EB0E
:1004F0000200A94105D24046214690461C460B46C3
:10050000024623F00040104347D0270DC7F30A00EE
:10051000C3F30A510290401A019040286BDAC3F3EA
:10052000130040F4801B0098924620B10023D2EBC8
:10053000030A63EB0B0B01985946C0F14002504689
:10054000FFF7AAFF06460D4650465946019A00F0AD
:100550008DF910EB08006141002487EA115284EA0A
:10056000E7731A4340D0009A62B3019A012A4FEA16
:10057000075215DC001B61EB02014FF0004202EA5A
:100580000752CDE90042001C41F5801132462B464E
:1005900000F08DF903B0BDE8F08F40462146F9E741
:1005A000001B61EB0201001C41F5801300185B4148
:1005B0002018A2F5001747EB030140EAD570B619E1
:1005C0006D4111E06D084FEA360645EAC0754FEA05
:1005D0000752001B61EB0201001C41F58011490824
:1005E0004FEA30000019514132462B4603B0BDE8B6
:1005F000F04F00F04DB90098012240000023D0EBED
:10060000020263EBE073009821464FEAE074B8EB16
:10061000000061EB0401E9E783F000435BE781F050
:10062000004158E72DE9FE4F81EA030404F000443D
:1006300021F0004100944FF0000B23F0004350EAFA
:1006400001045ED052EA03045BD0C3F30A54C1F341
:100650000A552C44A4F2F3340194A0FB0254C1F3D4
:10066000130141F48011C3F3130343F4801301FB1E
:10067000024400FB034E840A970A44EA815447EA85
:100680008357A4FB076802958D0A05FB07854FEA8F
:10069000932C04FB0C542705029D4FEA065847EAA9
:1006A0001637B5EB08056EEB070C870E920E47EA7E
:1006B000811742EA8312A7FB0201B6EB0B0164EB40
:1006C00000042B0D43EA0C335E1844EB1C50DA4651
:1006D0005146E7FB0201C5F313044FEA0B3343EA2B
:1006E00014534FEA0432019C43EA0603A4F10C04BC
:1006F0000294009CCDE900B400F0D9F803B0BDE845
:10070000F08F00200146F9E72DE9F04D81EA03045E
:1007100004F0004B21F0004514464FF0000A23F08E
:10072000004150EA050220D054EA01021DD0C5F371
:100730000A570246C5F31303C1F31300C1F30A5667
:1007400040F4801543F48013A7EB0608101BD6462F
:1007500008F2FD3873EB050002D308F1010801E04F
:1007600092185B41B8F1000F03DA00200146BDE8A2
:10077000F08D00204FF48011064684460EE0171BD2
:1007800073EB050705D3121B63EB050306434CEA25
:10079000010C49084FEA300092185B4150EA01070A
:1007A000EDD152EA030012D082EA040083EA050187
:1007B000084305D0101BAB4106D20122002306E0FE
:1007C00000224FF0004302E06FF0010253101AEBD9
:1007D00006004CEB085110EB0A0041EB0B01BDE8A1
:1007E000F04D00F055B8C1F30A52C1F3130140F2C5
:1007F000FF3341F480119A4202DA0020014670472B
:1008000040F233439A42A2F2334202DC5242FFF7F3
:1008100052BEFFF741BE000030B5041E71F1000466
:1008200004DB4FF00044404264EB0101141E73F1FD
:10083000000405DB1C464FF00043524263EB040307
:10084000994208BF904230BD064C074D06E0E06873
:1008500040F0010394E8070098471034AC42F6D307
:10086000FFF71EFDF88C0008188D0008202A06DB13
:10087000CB17203A41FA02F043EAE07306E041FA6E
:1008800002F3D040C2F1200291400843194670475C
:1008900010B5141E73F1000408DA401C41F1000188
:1008A00092185B411A4301D120F0010010BD2DE9DF
:1008B000F04D92469B4611B1B1FA81F202E0B0FAD6
:1008C00080F220329046FFF7E7FD04460F4640EAEB
:1008D0000A0041EA0B0153465A46084313D0114619
:1008E00053EA010019D0C8F140025046FFF7E3FD7A
:1008F00005460E46504659464246FFF7CDFD084391
:1009000005D0012004E020463946BDE8F08D0020E6
:10091000054346EAE0762C4337430A986305E40A28
:10092000A0EB08000022FD0A44EA47540A3002D531
:1009300000200146E9E7010510196941DDE9084594
:1009400000196941BDE8F04DA2E70000014800F040
:1009500035BD0000EC090024014800F02FBD000067
:10096000640A0024FEE70000074810B503F051FABE
:10097000064800F023FDBDE8104005494FF48062B1
:10098000014803F045BD00005C090024DC0A002496
:1009900000000024294A016891423AD0274A1832BF
:1009A000914236D0254A3032914232D0234A4832E1
:1009B00091422ED0214A603291422AD01F4A783289
:1009C000914226D01D4A9032914222D01B4AA83231
:1009D00091421ED01A4A91421BD0194A18329142B4
:1009E00017D0174A3032914213D0154A48329142FB
:1009F0000FD0134A603291420BD0114A78329142A3
:100A000007D00F4A9032914203D00D4AA83291424A
:100A100011D1CAB21823103AB2FBF3F26FF30901F5
:100A2000032A02F00703074AD25CC26500D9091DF8
:100A300081650846704721F0FF01F9E71000024088
:100A400010040240508C000830B5224A012301688E
:100A50009142CAB21BD01F4C1434A14217D01D4C76
:100A60002834A14213D01B4C3C34A1420FD0194C66
:100A70005034A1420BD0174C6434A14207D0154C1E
:100A80007834A14203D0134C8C34A1420CD11421F0
:100A9000114C083AB2FBF1F10F4A803201F01F0508
:100AA00004EB8101AB4010E00C4D1824103A0D44CA
:100AB000B2FBF4F1A82D00D80831094A01F01F0457
:100AC00002EB8101064AA3408032603080E80E00CC
:100AD00030BD00000854025800580258F0FBFDBF1A
:100AE0000008024010B50279531E072B2DD8174C71
:100AF0000168A1421BD0154C1434A14217D0134CED
:100B00002834A14213D0114C3C34A1420FD00F4CD9
:100B10005034A1420BD00D4C6434A14207D00B4C91
:100B20007834A14203D0094C8C34A14203D1084946
:100B3000074C443102E00749064C443104EB820281
:100B4000C0E91B2101219940416710BD085402589A
:100B5000FC580258FC08024010B583694FF0C0747D
:100B6000826A0146002053B1B3F5005F15D072B11F
:100B7000012A0CD0022A0AD0032A09D104E01AB1B2
:100B8000012A06D0022A03D1C96AC90100D5012071
:100B900010BDC96AA142FAD010BD002AF7D0012ABF
:100BA000F2D0022AF3D0032AF3D010BD2DE9F04F82
:100BB000804E804FDFF8FC911836DFF8F8A14837F7
:100BC0000468856D0AF1300ADFF8ECB14C45DFF8B6
:100BD000ECC1DFF8ECE16DD0B4426BD0544569D084
:100BE000BC4267D0DFF8D081A8F11808444561D035
:100BF0005C455FD064455DD074455BD0DFF8C4814F
:100C0000444557D0DFF8BC8108F11808444551D05D
:100C1000DFF8B08108F1300844454BD0DFF8A481FB
:100C200008F14808444545D0DFF8988108F160088C
:100C300044453FD0DFF88C8108F17808444539D02D
:100C4000DFF8808108F19008444533D0DFF87481E3
:100C500008F1A80844452DD0DFF86C81444529D01F
:100C6000DFF8648108F11408444523D0DFF8588187
:100C700008F1280844451DD0DFF84C8108F13C08F4
:100C8000444517D0DFF8408108F15008444511D0A1
:100C9000DFF8348108F1640844450BD0DFF828817F
:100CA00008F17808444505D0DFF81C8108F18C086C
:100CB000444509D1D0E91948C4F80480C46E1CB178
:100CC000D0E91C48C4F8048004684C452ED0B442D6
:100CD0002CD054452AD0BC4228D0374E183EB442BE
:100CE00024D05C4522D0644520D074451ED0354EBA
:100CF000B4421BD0334E1836B44217D0314E303682
:100D0000B44213D02F4E4836B4420FD02D4E603629
:100D1000B4420BD02B4E7836B44207D0294E9036D1
:100D2000B44203D0274EA836B44215D190F85C6087
:100D30003F2406F01F06B440AC600468256825F423
:100D4000802525602EE09A600068C160BDE8F08FC4
:100D500099600068C260F9E71B4EB4421BD01A4E7E
:100D60001436B44217D0184E2836B44213D0164E5B
:100D70003C36B4420FD0144E5036B4420BD0124E13
:100D80006436B44207D0104E7836B44203D00E4ECB
:100D90008C36B442DAD190F85C60012406F01F066C
:100DA000B4406C60046863608368402B0368CFD1F3
:100DB000C9E700001000024088000240A000024085
:100DC000B80002401004024008540258704772B63E
:100DD000FEE700002DE9F84F044601F0CFFA00903D
:100DE0003CB194F83500022806D0802161650020CE
:100DF000E4E00120BDE8F88FC74DC74EC64918355D
:100E000020683036DFF81483DFF814938842DFF867
:100E100014A3DFF814B32ED0A8422CD0B0422AD0AD
:100E2000404528D0484526D0504524D0584522D0AA
:100E3000BD4A183290421ED0BC4A90421BD0BB4AD9
:100E40001832904217D0B94A3032904213D0B74A84
:100E5000483290420FD0B54A603290420BD0B34A2C
:100E60007832904207D0B14A9032904203D0AF4AD4
:100E7000A832904209D1026822F01E020260206866
:100E8000426922F08002426103E0026822F00E0211
:100E9000026027688F4238464DD0A8424BD0B042FE
:100EA00049D0404547D0484545D0504543D05845A6
:100EB00041D09D4A183290423DD09C4A90423AD04F
:100EC0009A4A1832904236D0984A3032904232D004
:100ED000964A483290422ED0944A603290422AD0AC
:100EE000924A7832904226D0904A9032904222D054
:100EF0008E4AA83290421ED08D4A90421BD08C4A16
:100F00001432904217D08A4A2832904213D0884A2D
:100F10003C3290420FD0864A503290420BD0844AE5
:100F20006432904207D0824A7832904203D0804A9D
:100F30008C32974204D1206E026822F480720260E3
:100F400075492068884228D0A84226D0B04224D0D3
:100F5000404522D0484520D050451ED058451CD091
:100F600071491831884218D07049884215D06F49AC
:100F70001831884211D06D49303188420DD06B490B
:100F80004831884209D069496031884205D06749B3
:100F90007831884201D065499031016821F0010122
:100FA00001600EE001F0EAF90099401A052808D91D
:100FB000202262650321002084F8351084F8340073
:100FC00017E73868C007EDD1534A012120689042E5
:100FD0002ED0A8422CD0B0422AD0404528D0484537
:100FE00026D0504524D0584522D04F4B1833984234
:100FF0001ED04E4B98421BD04C4B1833984217D002
:101000004A4B3033984213D0484B483398420FD064
:10101000464B603398420BD0444B7833984207D00C
:10102000424B9033984203D0404BA833984208D1AA
:1010300094F85C703F23A06D07F01F07BB408360EE
:1010400007E094F85C30A06D03F01F0301FA03F38E
:101050004360206890424DD0A8424BD0B04249D066
:10106000404547D0484545D0504543D0584541D0EC
:101070002D4A183290423DD02C4A90423AD02B4A09
:101080001832904236D0294A3032904232D0274A24
:10109000483290422ED0254A603290422AD0234ACC
:1010A0007832904226D0214A9032904222D01F4A74
:1010B000A83290421ED01E4A90421BD01C4A1432C5
:1010C000904217D01A4A2832904213D0184A3C3224
:1010D00090420FD0164A503290420BD0144A6432DC
:1010E000904207D0124A7832904203D0104A8C3294
:1010F00090420BD1D4E919024260E06E30B102682F
:1011000022F480720260D4E91C024260002084F85C
:10111000351084F834006DE610000240580002409B
:101120007000024088000240A0000240100402400B
:10113000085402582DE9F05F28B190F835100229C3
:1011400004D0802141650120BDE8F09F904C904B78
:101150000168183C18338E4ADFF83C92A1428D4C4E
:10116000DFF838E28E4FDFF83CB2DFF83CA28F4D5B
:101170008F4E31D091422FD099422DD0A1422BD009
:10118000494529D0714527D0B94225D0DFF810C292
:101190000CF1180C61451FD0DFF808C2ACF1600CEF
:1011A000614519D0DFF8FCC1ACF1480C614513D0A2
:1011B000DFF8F0C1ACF1300C61450DD0DFF8E4C1CF
:1011C000ACF1180C614507D0594505D0514503D005
:1011D000A94201D0B1422CD1DFF8B4C14FF00408CC
:1011E00080F83580ACF1180C61451DD091421BD0C0
:1011F000994219D0A14217D0494515D0714513D055
:10120000B94211D06648183081420DD06548603827
:10121000814209D063484838814205D0614830385E
:10122000814201D05F481838086820F0010008604A
:10123000ABE0D1F800C02CF00E08DFF854C1C1F8C3
:101240000080ACF1180C0168614527D0914225D08F
:10125000994223D0A14221D049451FD071451DD0CC
:10126000B9421BD0DFF838C10CF1180C614515D01C
:10127000DFF830C1ACF1600C61450FD0DFF824C15C
:10128000ACF1480C614509D0DFF818C1ACF1300C65
:10129000614503D0DFF80CC1ACF1180CD1F800C0E7
:1012A0002CF0010CC1F800C0DFF8E4804FF0010C15
:1012B0000168A8F11808414546D0914244D09942AE
:1012C00042D0A14240D049453ED071453CD0B942C0
:1012D0003AD0334A1832914236D0324A603A91427B
:1012E00032D0304A483A91422ED02E4A303A91427A
:1012F0002AD02C4A183A914226D0594524D051453B
:1013000022D0A94220D0B1421ED02A4A91421BD0FD
:10131000284A1432914217D0264A2832914213D0DB
:10132000244A3C3291420FD0224A503291420BD093
:10133000204A6432914207D01E4A7832914203D04B
:101340001C4A8C32914218D1016E0A6822F48072D4
:101350000A6090F85C20816D02F01F020CFA02F224
:101360004A60D0E919124A60C16E31B10A6822F4AC
:1013700080720A60D0E91C124A600022016D80F878
:1013800035C080F8342001B188470020DCE6000039
:1013900028000240580002407000024088000240CD
:1013A000A00002407004024088040240A0040240F1
:1013B000B804024008540258406D70472DE9FC5FA4
:1013C0000446F74E0020DFF8D88300904FF4165201
:1013D000F44808F11808A56DDFF8C493DFF8C0A33E
:1013E000016809F1300920680AF1480AB1FBF2F1FD
:1013F000B04201912F68D5F800C0DFF8ACB335D00A
:101400004146884232D0484530D050452ED05845CC
:101410002CD0E5491831884228D0E3493031884240
:1014200024D0E1494831884220D0E04988421DD08B
:10143000DE491831884219D0DC493031884215D054
:10144000DA494831884211D0DFF860E30EF1600ECE
:1014500070450BD0D54A7832904207D0D34B9033A9
:10146000984203D0D149A83188427DD194F85C20BC
:10147000082102F01F0201FA02F23A424AD0B042B9
:1014800032D0404530D048452ED050452CD058451C
:101490002AD0C54A1832904226D0C34A30329042F0
:1014A00022D0C14A483290421ED0C04A90421BD03E
:1014B000BE4A1832904217D0BC4A3032904213D004
:1014C000BA4A483290420FD0B84A603290420BD0AC
:1014D000B64A7832904207D0B44A9032904203D054
:1014E000B24AA832904203D1026802F0040202E03C
:1014F000026802F008026AB1026822F00402026087
:1015000094F85C0000F01F008140A960606D40F01D
:101510000100606594F85C00012100F01F0081402B
:10152000394240D02068B04234D0404532D048459E
:1015300030D050452ED058452CD09B4A183290427E
:1015400028D0994A3032904224D0974A483290426B
:1015500020D0964A90421DD0944A1832904219D019
:10156000924A3032904200E0AFE113D08F4A4832C5
:1015700090420FD08D4A603290420BD08B4A783225
:10158000904207D0894A9032904203D0874AA832CD
:1015900090427DD1406910F0800F04D0A960606D49
:1015A00040F00200606594F85C00042100F01F0028
:1015B000814039423ED02068B04232D0404530D0E0
:1015C00048452ED050452CD058452AD0764A18325E
:1015D000904226D0744A3032904222D0724A483229
:1015E00090421ED0714A90421BD0704A18329042ED
:1015F00017D06E4A3032904213D06C4A4832904233
:101600000FD06A4A603290420BD0684A78329042DA
:1016100007D0664A9032904203D0644AA832904282
:101620004ED1006810F0020F04D0A960606D40F048
:101630000400606594F85C00102100F01F008140F8
:10164000394258D02068B04234D0404532D0484565
:1016500030D050452ED058452CD0534A18329042A5
:1016600028D0514A3032904224D04F4A48329042DA
:1016700020D04E4A90421DD04C4A1832904219D088
:101680004A4A3032904215D0484A4832904200E0EF
:1016900014E00FD0454A603290420BD0434A783272
:1016A000904207D0414A9032904203D03F4AA8323C
:1016B000904207D1006800F0080006E0006872E779
:1016C0000068B7E7006800F00400A0B1A9602068D6
:1016D0000168490304D50068000308D5A16C07E040
:1016E0000168C90503D4016821F008010160216C7B
:1016F00009B12046884794F85C00202100F01F00C3
:101700008140394279D02068B04232D0404530D053
:1017100048452ED050452CD058452AD0224A183260
:10172000904226D0204A3032904222D01E4A48327F
:1017300090421ED01D4A90421BD01C4A1832904243
:1017400017D01A4A3032904213D0184A4832904289
:101750000FD0164A603290420BD0144A7832904231
:1017600007D0124A9032904203D0104AA8329042D9
:1017700003D1006800F0100002E0006800F00200F1
:10178000B0B3A96094F835000428206801680FD030
:1017900049037ED5006800032BD4616C2AE0000069
:1017A000100002402C080024700002401004024087
:1017B00021F0160101602068416921F0800141613A
:1017C000206C08B9A06C20B12068016821F00801E4
:1017D000016094F85C303F21012003F01F030022D8
:1017E0009940A96084F8350084F83420216D65E0C3
:1017F00003E0E16B09B120468847606D00287DD089
:10180000606DC00759D02068042184F83510B042BB
:101810002BD0404529D0484527D0504525D05845A4
:1018200023D09D49884220D09B49183188421CD042
:1018300099493031884218D09849884215D0974943
:101840001831884211D09549303188420DD09349E2
:101850004831884209D091496031884205D08F498A
:101860007831884201D08D499031016821F0010121
:10187000016020680099019A491C0091914202D8A8
:101880000168C907F6D10068C00710D003200FE037
:10189000FFE70168C905ACD403680121002223F0E9
:1018A0001003036084F8351084F83420A1E7012088
:1018B00084F83500002084F83400E16C00291DD044
:1018C00002B02046BDE8F05F0847754988421DD048
:1018D00073491431884219D071492831884215D092
:1018E0006F493C31884211D06D49503188420DD04A
:1018F0006B496431884209D0694900E084E078315D
:10190000884203D066498C3188427DD194F85C804E
:101910000427016808F01F0807FA08F717EA0C0FF8
:10192000009746D04F0744D500980F04686003D550
:10193000C8033CD4A16CC1E7880638D42068B04203
:101940002DD055496039884229D0484527D0504587
:1019500025D0584523D05049884220D04E491831CF
:1019600088421CD04C493031884218D04B498842BB
:1019700015D04A491831884211D04849303188423F
:101980000DD046494831884209D0704507D0904271
:1019900005D0984203D04149A831884203D101685B
:1019A00021F0080102E0016821F004010160216CCE
:1019B00084E7022707FA08F717EA0C0F00974ED0C2
:1019C0008F074CD500980F04686003D5C80344D432
:1019D000616C73E7880640D42068B0422FD02E494E
:1019E000603988422BD0484529D0504527D05845EA
:1019F00025D02949884222D02749183188421ED053
:101A000025493031884200E044E018D0234988421B
:101A100015D022491831884211D0204930318842EE
:101A20000DD01E494831884209D0704507D09042F8
:101A300005D0984203D01949A831884203D10168E2
:101A400021F0140102E0016821F00A010160012186
:101A500084F83510002084F83400E16B2EE708226A
:101A600002FA08F212EA0C0F14D0090712D5016825
:101A700021F00E01016094F85C100120002201F0B9
:101A80001F0100FA01F16960606584F8350084F88F
:101A9000342012E7BDE8FC9F880002401004024099
:101AA000085402582DE9F05F044600F067FC002C52
:101AB00007467DD0E34E022120684FF00308DFF88F
:101AC00088934FF00005DFF884A3B042DFF880B3BD
:101AD00034D0DC4A1832904230D048452ED05045A0
:101AE0002CD058452AD0DA4A1832904226D0D84A0B
:101AF0003032904222D0D64A483290421ED0D54A47
:101B000090421BD0D34A1832904217D0D14A30327B
:101B1000904213D0CF4A483290420FD0CD4A603223
:101B200090420BD0CB4A7832904207D0C94A9032CB
:101B3000904203D0C74AA83290427DD184F8351034
:101B4000B04284F834502ED0BE49183188422AD091
:101B5000484528D0504526D0584524D0BC49183196
:101B6000884220D0BA49303188421CD0B849483127
:101B7000884218D0B749884215D0B64918318842F2
:101B800011D0B449303188420DD0B2494831884231
:101B900009D0B0496031884205D0AE4978318842D9
:101BA00001D0AC499031016821F00101016008E0E9
:101BB00027E100BF00F0E2FBC01B052801D920216E
:101BC0001CE120680068C007F4D104F10800216816
:101BD000D4E9053C8E4685C809681043D4E9072836
:101BE0001F43636A38439C4F40EA0C00104339405E
:101BF00040EA0800042B40EA010003D1D4E90B12AB
:101C000011430843954909686FF30F01B1F1005F73
:101C10000FD36168A1F12902052A08D9163A032ACF
:101C200005D9083A012A02D94F39032901D840F4CD
:101C30008010CEF8000000E023E02068676A406969
:101C4000042F20F0070047EA00070DD1D4E90A016C
:101C5000074349B12046FEF77FFF28B14020606569
:101C6000012184F83510CCE0206847612046FEF75A
:101C700091FE94F85C203F2102F01F0291408160A8
:101C800054E0774A90421BD0754B1433984217D0DA
:101C9000734B2833984213D0714B3C3398420FD08A
:101CA0006F4B503398420BD06D4B6433984207D042
:101CB0006B4B7833984203D0694B8C3398427DD17B
:101CC00084F8351084F83450664B0168A26801EA44
:101CD000030E402A73D0802A72D00022D4E9037800
:101CE000D4E9053142EAD70242EAD8085C4AD4E98D
:101CF000077C48EAD30848EAD10141EAD7015242B9
:101D000041EA1C11142341EA0E01016020681044CD
:101D1000B0FBF3F08000E0652046FEF73BFE94F850
:101D20005C20012102F01F02914041602068B04216
:101D300057D044491831884253D0484551D0504576
:101D40004FD058454DD042491831884249D040497A
:101D50003031884245D03E494831884241D03D49E2
:101D600088423ED03B49183188423AD03949303117
:101D7000884236D037494831884232D035496031BF
:101D800088422ED03349783188422AD03149903167
:101D9000884226D02F49A831884222D03049884233
:101DA0001FD02F49143188421BD02D492831884239
:101DB00017D02B493C31884213D002E01DE017E0D8
:101DC00018E02749503188420BD0254964318842B8
:101DD00007D023497831884203D021498C31884289
:101DE00029D12046FEF730FEA06880280CD00CE0F8
:101DF000102273E74FF4804270E74021616584F858
:101E000035800120BDE8F09F6560216E2079086073
:101E1000D4E9190141606068401E072808D82046AF
:101E2000FEF760FEE06E0560D4E91C01416002E04F
:101E3000E566256765670120656584F83500002043
:101E4000E0E700001000024040000240580002405D
:101E500070000240100402403F8010FE0010005C41
:101E6000085402580F00FEFF2DE9F84F04008C467D
:101E70004FF00000009014D094F83400012812D0E4
:101E800094F835500120002184F83400012D0CD045
:101E9000C00260650120009084F834100098BDE80D
:101EA000F88F0120FBE70220F9E78C4D022620681D
:101EB00084F83560A8428A4D61658A4E8A4FDFF802
:101EC0002C82DFF82C92DFF82CA2DFF82CB226D07F
:101ED000A84224D0B04222D0B84220D040451ED0E3
:101EE00048451CD050451AD0584518D083498842DF
:101EF00015D082491831884211D08049303188424A
:101F00000DD07E494831884209D07C4960318842F1
:101F100005D07A497831884201D0784990310168FA
:101F200021F00101016061462046FEF73FFE6B494A
:101F3000206888422CD0A8422AD0B04228D0B8428B
:101F400026D0404524D0484522D0504520D0584581
:101F50001ED06A4A90421BD0684A1832904217D06D
:101F6000664A3032904213D0644A483290420FD0D1
:101F7000624A603290420BD0604A7832904207D079
:101F80005E4A9032904203D05C4AA83290420CD113
:101F9000026822F01E0242F016020260206C88B134
:101FA0002068026842F008020BE0026822F00E028C
:101FB00042F00A020260206C20B12068026842F000
:101FC00004020260206888424BD0A84249D0B04247
:101FD00047D0B84245D0404543D0484541D0504510
:101FE0003FD058453DD0454A90423AD0434A1832F6
:101FF000904236D0414A3032904232D03F4A483245
:1020000090422ED03D4A603290422AD03B4A7832EC
:10201000904226D0394A9032904222D0374AA83294
:1020200090421ED0364A90421BD0354A143290421C
:1020300017D0334A2832904213D0314A3C32904272
:102040000FD02F4A503290420BD02D4A643290422A
:1020500007D02B4A7832904203D0294A8C329042E2
:102060000DD1206E0268D20303D5026842F480725B
:102070000260E06E18B1026842F48072026020686B
:10208000884226D0A84224D0B04222D0B84220D0E4
:1020900040451ED048451CD050451AD0584518D050
:1020A0001649884215D015491831884211D0134974
:1020B000303188420DD011494831884209D00F494A
:1020C0006031884205D00D497831884201D00B49F2
:1020D0009031016841F001010160DFE6100002402B
:1020E00028000240400002405800024070000240B8
:1020F00088000240A0000240B800024010040240E4
:102100000854025870B5044600F038F90546601CC2
:1021100002D004480078044400F030F9401BA0428B
:10212000FAD370BD340800242DE9F84F03247D4D07
:1021300000234FF001094FF0B04B4FF00F0AE9E0D8
:1021400009FA03F73A4076D00E7906F00306012E1D
:1021500001D0022E18D1D0F808C04FEA430ECE6845
:1021600004FA0EF82CEA080C06FA0EF646EA0C06FB
:102170008660D0F804C00E792CEA070CC6F300166E
:102180009E4046EA0C0646600E79F643B6070BD031
:10219000C6684FEA43088F6804FA08FC26EA0C0672
:1021A00007FA08F73743C7600E7906F00306022ED8
:1021B00012D1DE080F694FEA437C00EB8606B64673
:1021C000366A4FEADC6C0AFA0CF807FA0CF726EAD2
:1021D00008063743CEF820700F7906684FEA4308A7
:1021E00007F0030704FA08FC07FA08F726EA0C06CA
:1021F000374307604E6816F4403F1CD04A4E37689C
:1022000047F00207376036689F0706F0020600961F
:1022100023F0030606F1B046B6463F0FD6F8086431
:10222000DFF808810AFA07FC404526EA0C0603D1CC
:102230004FF0000C41E06CE0DFF8F4C0604502D1E3
:102240004FF0010C39E0DFF8ECC0604502D14FF0EF
:10225000020C32E0DFF8E0C0604502D14FF0030C21
:102260002BE0DFF8D8C0604502D14FF0040C24E029
:10227000DFF8CCC0604502D14FF0050C1DE0DFF85F
:10228000C4C0604502D14FF0060C16E0DFF8B8C0BC
:10229000604502D14FF0070C0FE0DFF8B0C0604599
:1022A00002D14FF0080C08E0DFF8A4C0604502D16D
:1022B0004FF0090C01E04FF00A0C0CFA07FC4CEA55
:1022C000060CCEF808C44F68DBF80060FF0226EA6F
:1022D000020600D516435F46CBF80060D1F804C073
:1022E000DBF804605FEA8C2C26EA020600D5164370
:1022F0007E606E684F6826EA0206BF0300D516436B
:102300006E602E684F6826EA0206FF0300D516436A
:102310002E605B1C0A6832FA03F67FF411AFBDE849
:10232000F88F000080000058F44402580000025862
:102330000004025800080258000C0258001002580D
:102340000014025800180258001C025800200258BD
:1023500000240258426921EA02030A4043EA02418A
:10236000816170470AB1816170470904FBE7000091
:1023700001480068000C70470010005C014880684C
:102380007047000034080024024881680278114434
:102390008160704734080024032010B500F0ACF8C9
:1023A00001F048F80F4A104914681368C4F3032277
:1023B00003F00F038A5CC95C02F01F0201F01F01E9
:1023C000D0400A4A20FA01F11160094908600F2043
:1023D00000F010F808B1012010BD00F04DF8002009
:1023E00010BD000018440258408C0008300800243A
:1023F0002C08002410B5102804468AB02AD20022E6
:102400000146762000F058F8762000F047F815488D
:1024100004601548016841F480210160006808A942
:1024200000F480200990684600F090FF00F0F0FF73
:102430000E49400000220E4CB0FBF1F10D4840F275
:10244000E7330460C0E90332491EC0E9011201F01C
:1024500028FB10B101200AB010BD064801F054FB62
:10246000F9E7000038080024F044025840420F0009
:1024700000480140540F0024074882B0016841F031
:1024800002010160006800220F2100F002000090AC
:10249000901E02B000F010B8F4440258002809DB86
:1024A000410900F01F028900012001F1E021904064
:1024B000C1F80001704700000E4BF0B41B680D46D8
:1024C000C3F30223C3F10706042E00D90426191D05
:1024D000072901D2002300E0DB1E012404FA06F1E3
:1024E0009C40491E2940641E994014402143F0BC81
:1024F00003F0DEBF0CED00E0064900F0070210B566
:102500004FF6FF040868044B204040EA02201843BD
:10251000086010BD0CED00E00000FA05134970B52D
:102520000A68D243520705D5096801F007018142C4
:1025300013D118E00A6822F0070202430A60FFF78D
:102540001DFF0A4D4FF47A760446083D07E000BFB0
:10255000FFF714FF001BB04201D9012070BD2868AD
:10256000C0438004F4D4002070BD00000C48025821
:1025700010B500F019FF05490968054AC1F30211B9
:10258000515C01F01F01C84010BD000020440258FA
:10259000408C0008494930B5484C0B1D0A6814347A
:1025A00009681D68246802F00303C5F30012C1F333
:1025B0000531C4F3CC04002914FB02F200EE102A0A
:1025C000F8EE400A75D03F4A9FED3D1AB7EE000A7B
:1025D0006BB1DFED3D1A012B01D0022B64D002EE6E
:1025E000101A1168F8EE422A81EEA22A21E0334C3B
:1025F000283C23689B0612D5344B246801EE901AC0
:102600001168C4F3C104F8EE612AE34001EE903A88
:10261000C1F30801F8EE611A81EEA22A0BE001EE87
:10262000901ADFED2B2A00BFF8EE611A116882EED6
:10263000A12AC1F3080101EE901A1168F8EE611A9F
:1026400040EE811A71EE800A62EE200AC1F3462143
:1026500001EE101AB8EE411A31EE001AC0EE811ADE
:10266000BCEEE11A80ED001A1168C1F3064101EEDB
:10267000101AB8EE411A31EE001AC0EE811ABCEE03
:10268000E11A80ED011A1168C1F3066101EE101A1A
:10269000B8EE411A31EE000A80EE801ABCEEC10A93
:1026A00080ED020A30BD04E001EE901ADFED092A48
:1026B000BAE70021016041608160F3E728440258D5
:1026C00000000039384402580024744A0090D003B6
:1026D0000024744C20BCBE4B494930B5484C0B1DFE
:1026E0000A681C3409681D68246802F00303C5F3F6
:1026F0000022C1F30551C4F3CC04002914FB02F2FB
:1027000000EE102AF8EE400A75D03F4A9FED3D1AC0
:10271000B7EE000A6BB1DFED3D1A012B01D0022BA1
:1027200064D002EE101A1168F8EE422A81EEA22A55
:1027300021E0334C283C23689B0612D5344B246897
:1027400001EE901A1168C4F3C104F8EE612AE34067
:1027500001EE903AC1F30801F8EE611A81EEA22A67
:102760000BE001EE901ADFED2B2A00BFF8EE611AA4
:10277000116882EEA12AC1F3080101EE901A1168D6
:10278000F8EE611A40EE811A71EE800A62EE200ABC
:10279000C1F3462101EE101AB8EE411A31EE001ACB
:1027A000C0EE811ABCEEE11A80ED001A1168C1F387
:1027B000064101EE101AB8EE411A31EE001AC0EED1
:1027C000811ABCEEE11A80ED011A1168C1F30661AD
:1027D00001EE101AB8EE411A31EE000A80EE801AAE
:1027E000BCEEC10A80ED020A30BD04E001EE901A91
:1027F000DFED092ABAE70021016041608160F3E75B
:102800002844025800000039404402580024744A09
:102810000090D0030024744C20BCBE4B2DE9FC5F1B
:10282000044650F8241B002500902E460801FE4F58
:10283000DFF8F8831DD5606E50B1B0F5801F0CD065
:10284000B0F5001F0ED0B0F5401F1DD001250FE0E0
:10285000386840F40030386016E00221201D02F094
:1028600071FB03E00098022102F0FCFB05000BD095
:102870002E462088C00523D5606D05281ED2DFE8CE
:1028800000F00C11161B1B00626ED8F8001021F42A
:1028900040111143C8F80010EBE7386840F40030ED
:1028A000386009E00021201D02F04CFB03E0009895
:1028B000002102F0D7FB05466DB100E001252E4650
:1028C0002088800528D5A06D80281ED00CDC90B112
:1028D00040280ED114E0626DD8F8001021F00701F5
:1028E0001143C8F80010EBE7C02813D0B0F5807F83
:1028F00010D001250FE0386840F40030386009E05E
:102900000021201D02F01EFB03E00098002102F0D0
:10291000A9FB054695B12E462088DFF810934005A7
:1029200009F108092CD5D4F8A400B0F5800F20D007
:102930000DDCA0B1B0F5001F0FD115E0A26DD8F8E5
:10294000001021F4E0711143C8F80010E4E7B0F57D
:10295000C00F13D0B0F5000F10D001250FE038687C
:1029600040F40030386009E00021201D02F0EAFA4E
:1029700003E00098002102F075FB054675B12E4674
:10298000208800052DD5D4F8A800B0F1007F21D013
:102990000EDCA8B1B0F1807F10D116E0D4F8A420ED
:1029A000D9F8001021F460011143C9F80010E7E7DD
:1029B000B0F1407F13D0B0F1806F10D001250FE04F
:1029C000386840F40030386009E00021201D02F032
:1029D000B9FA03E00098002102F044FB05466DB10E
:1029E0002E46206880011FD5A06CD8B110280FD0CA
:1029F000202812D0302815D0012514E0D4F8A820C2
:102A0000D9F8001021F0E0611143C9F80010E8E79F
:102A1000386840F40030386004E00221201D02F0E4
:102A200091FA05466DB12E462088C0042BD5E06D85
:102A3000B0F5005F20D00DDCA0B1B0F5805F0FD104
:102A400015E07A48A26C001F016821F030011143A3
:102A50000160E9E7B0F5405F13D0B0F5804F10D0CA
:102A600001250FE0386840F40030386009E00021AB
:102A7000201D02F067FA03E00098002102F0F2FA4C
:102A8000054685B12E462088800429D5206EB0F5F4
:102A9000403F23D010DC08B3B0F5803F14D0B0F530
:102AA000003F0FD115E0E26DD8F8001021F4E041AD
:102AB0001143C8F80010E6E7B0F5802F0ED0B0F54E
:102AC000A02F0BD001250AE00121201D02F03AFAC7
:102AD00003E00098012102F0C5FA05468DB12E46AB
:102AE000208840042AD5D4F8AC00B0F1405F23D050
:102AF00010DC08B3B0F1805F14D0B0F1005F0FD1EB
:102B000015E0226ED8F8001021F4E0211143C8F836
:102B10000010E5E7B0F1804F0ED0B0F1A04F0BD020
:102B200001250AE00121201D02F00CFA03E00098C3
:102B3000012102F097FA05466DB12E462088000467
:102B40001FD5E06ED8B1B0F1805F0ED0B0F1005F5C
:102B500010D0012514E0D4F8AC20D9F8001021F0F1
:102B6000E0411143C9F80010E8E7386840F400304C
:102B7000386004E00121201D02F0E4F905466DB142
:102B80002E462068C0011ED5606CD0B101280ED041
:102B9000022811D0032814D0012513E0E26ED8F8E2
:102BA000001021F040511143C8F80010E9E73868DF
:102BB00040F40030386004E00221201D02F0C2F928
:102BC000054685B12E462068DFF85CB04002ABF1C7
:102BD0001C0B57D51648016841F480710160FFF75E
:102BE000CDFB82460EE01148626C001F016821F0A7
:102BF000030111430160E6E7FFF7C0FBA0EB0A0009
:102C000064283DD80A480068C005F5D57DBBDFF8CB
:102C10001CA0B4F8B0200AF1200ADAF8001002F47F
:102C2000407001F4407105E02C44025850440258B1
:102C300000480258814211D0DAF80010DAF800207A
:102C400021F4407142F48032CAF80020DAF8002002
:102C500022F48032CAF80020CAF80010D4F8B0007C
:102C6000B0F5807F21D1FFF789FB019019E008E0E2
:102C7000FFF784FB0199411A41F28830814210D953
:102C800003252E462078DFF844A4C0073DD0A06F6E
:102C9000182838D026DC80B3082829D0102825D160
:102CA0002CE0DAF800008007E2D5D4F8B010C1F3C8
:102CB0000120032858460DD0016821F47C510160A1
:102CC000B4F8B020DAF80010C2F30B021143CAF8CE
:102CD0000010D7E7FE4A036802EA111223F47C5180
:102CE0001143ECE720280ED028280CD001250BE05A
:102CF0000121201D02F026F904E004E000980121E2
:102D000002F0B0F905465DB12E46207880071ED549
:102D1000606F062819D2DFE800F0160C111616169F
:102D2000A26FDAF8001021F038011143CAF8001040
:102D3000EBE70121201D02F005F903E000980121D5
:102D400002F090F9054675B100E001252E46207885
:102D500040071FD5D4F89000062819D2DFE800F00C
:102D6000160C11161616626FDAF8001021F0070122
:102D70001143CAF80010EAE70121201D02F0E2F831
:102D800003E00098012102F06DF905469DB100E0D5
:102D900001252E46207880062BD5D4F88C00B0F182
:102DA000405F24D011DC10B3B0F1805F15D0B0F1DA
:102DB000005F10D116E0D4F89020D9F8001021F06F
:102DC00007011143C9F80010E4E7B0F1804F0ED0BD
:102DD000B0F1A04F0BD001250AE00021201D02F028
:102DE000B1F803E00098022102F03CF905468DB1EC
:102DF0002E46207840062BD5D4F89800B0F5406FC9
:102E000024D011DC10B3B0F5806F15D0B0F5006F91
:102E100010D116E0D4F88C20DAF8001021F0E0414F
:102E20001143CAF80010E4E7B0F5805F0ED0B0F5AA
:102E3000A05F0BD001250AE00021201D02F082F8DE
:102E400003E00098022102F00DF905468DB12E46EF
:102E5000207800062BD5D4F89C00B0F5C04F24D0C4
:102E600011DC10B3B0F5005F15D0B0F5804F10D174
:102E700016E0D4F89820D9F8001021F4E05111435D
:102E8000C9F80010E4E7B0F5004F0ED0B0F5204FC0
:102E90000BD001250AE00021201D02F053F803E0C9
:102EA0000098022102F0DEF805464DB12E4620784A
:102EB00000071ED5D4F88000B0F5805F0AD00FE07F
:102EC000D4F89C20D9F8001021F460411143C9F8CE
:102ED0000010ECE70098022102F0C4F800B10126CE
:102EE000D4F88020DAF8001021F440511143CAF8D8
:102EF00000102078C00613D5D4F89400B0F5807F78
:102F000005D10098022102F0ADF800B10126D4F8F5
:102F10009420D9F8001021F440711143C9F8001031
:102F20002068000316D5D4F8A00038B1B0F5803F72
:102F300009D0B0F5003F0BD001250AE00021201D8B
:102F400002F000F803E00098022102F08BF8054639
:102F500085B12E462068400322D5D4F88400B0F510
:102F6000801F11D0B0F5001F13D0B0F5401F15D051
:102F7000012514E0D4F8A020D9F8001021F4403144
:102F80001143C9F80010E5E7386840F400303860B4
:102F900004E00098012102F065F8054655B12E467F
:102FA0002068C0031CD5E06C70B1B0F5803F10D034
:102FB000012514E0D4F88420DAF8001021F440113F
:102FC0001143CAF80010EBE7386840F4003038606D
:102FD00004E00221201D01F0B5FF0546CDB12E46CB
:102FE0002068800005D50098022102F03BF800B16E
:102FF0000126206880031BD5E06FB8B1B0F5807F53
:1030000010D0B0F5007F11D0B0F5407F0ED0012573
:103010000DE02E48E26C0838016821F4803111433C
:103020000160DDE7386840F400303860F5B32E46C3
:103030002068C00207D5226FD8F8001021F00041A7
:103040001143C8F800102068C00008D5D4F8B42097
:10305000DBF8001021F480411143CBF80010206808
:10306000800207D5A26ED8F8001021F080711143BC
:10307000C8F80010206840000CD5DBF8001021F4DF
:103080000041CBF80010DBF80010D4F8B820114351
:10309000CBF800102068002807DA0C48226D0838A9
:1030A000016821F040511143016000E014E0206804
:1030B000000208D5D4F88820DAF8001021F4400185
:1030C0001143CAF8001086B1012003E054440258AD
:1030D000CFFFFF00BDE8FC9FE26FDAF8001021F49B
:1030E00040711143CAF80010A2E70020EDE700008C
:1030F0002DE9F05F04000F467ED0DFF83882D8F863
:10310000000000F00F00B8420CD2D8F8001021F0F7
:103110000F013943C8F80010D8F8000000F00F0084
:10312000B84269D12078844D40070AD520692968C2
:1031300001F07001884204D9296821F0700101432F
:10314000296020787C4E361D00070AD560693168F9
:1031500001F07001884204D9316821F07001014307
:1031600031602078C0060AD5A069316801F4E061B9
:10317000884204D9316821F4E0610143316020784C
:10318000DFF8B4B180060BF1080B0CD5E1695846A5
:10319000DBF8002002F07002914204D9026822F0AC
:1031A00070020A430260207880070AD5E068296827
:1031B00001F00F01884204D9296821F00F01014371
:1031C00029602078C0073ED05B49A268286818397A
:1031D00020F47060104328606068022818D003282B
:1031E00019D00968012819D0490700294ADADFF8FF
:1031F00048A1AAF1080A00E044E0DAF8002022F031
:1032000007020243CAF80020FFF7B8F8814612E02F
:1032100009688903E9E709688901E6E7C905E4E780
:10322000FFF7ACF8A0EB090141F28830814202D9E6
:103230000320BDE8F09F6168DAF8000000F0380074
:10324000B0EBC10FECD1207880070AD5E06829687F
:1032500001F00F01884204D2296821F00F010143D7
:103260002960D8F80010404601F00F01B9420BD98F
:10327000016821F00F0139430160006800F00F0080
:10328000B84201D00120D4E7207840070AD5206950
:10329000296801F07001884204D2296821F0700188
:1032A00001432960207800070AD56069316801F080
:1032B0007001884204D2316821F07001014331600D
:1032C0002078C0060AD5A069316801F4E06188421F
:1032D00004D2316821F4E061014331602078800636
:1032E0000CD5E1695846DBF8002002F070029142EB
:1032F00004D2026822F070020A43026000F09AF8D9
:103300000E492A682B68C2F3032203F00F038A5C7C
:10331000C95C02F01F0201F01F01D040084A20FAE8
:1033200001F111600749086007480068BDE8F05FD7
:10333000FFF760B80020005218440258408C000883
:10334000300800242C0800243808002470B5144CE0
:103350003F220260124A24680832131D114D04F006
:103360000704446016681C1D06F4706686601668C3
:1033700006F00F06C660126802F0700202611A6859
:1033800002F0700242611A6802F4E062826122680F
:1033900002F07002C261286800F00F00086070BD82
:1033A000104402580020005230B500F043F80B4A98
:1033B0000B490C4B15681468C5F3032204F00F0485
:1033C0008A5C095D02F01F0201F01F01D040064A2D
:1033D00020FA01F119601060084630BD1844025807
:1033E000408C0008300800242C08002400B5FFF7AA
:1033F000DBFF05490968054AC1F30211515C01F080
:103400001F01C84000BD00001C440258408C000849
:1034100000B5FFF7C9FF05490968054AC1F3022154
:10342000515C01F01F01C84000BD00001C4402585F
:10343000408C0008454970B545480968434B103B2E
:1034400011F0380208D00111082A03D0102A0BD03D
:10345000182A0BD0084670BD19688906FBD5196873
:10346000C1F3C101C84070BD3A4870BD3749374DFE
:1034700018310C1D24350A68096826682D6802F089
:10348000030406F00102C1F30511C5F3CC0515FBD9
:1034900002F200EE102AB8EE400AE9B32F4ADFED3F
:1034A0002E0AB7EE001A6CB1DFED2D1A012C01D0F7
:1034B000022C43D002EE101A1068F8EE422A81EE78
:1034C000A22A1EE01C68A40611D51B6801EE901A02
:1034D0001168C3F3C103F8EE612AD84001EE900AE7
:1034E000C1F30800F8EE611A81EEA22A0BE001EEAA
:1034F000901ADFED1C2A00BFF8EE611A106882EE08
:10350000A12AC0F3080001EE900AF8EE611A40EE1D
:10351000201A31EE810A00E015E022EE000A106860
:10352000C0F34620401C00EE900AF8EE600A80EEE0
:10353000201ABCEEC10A10EE100A70BD01EE901AFE
:10354000DFED092AD8E7002070BD000010440258C2
:103550000090D00340787D010000003930440258CB
:103560000024744A0024744C20BCBE4B2DE9F05F4B
:1035700004007DD0FF4F2078FE4D1837DFF8F4931C
:10358000103DC00748D0D9F80000396800F0380075
:10359000102815D0182803D101F0030002280FD0FD
:1035A0006068B0F5803F12D010B1B0F5A02F18D0F0
:1035B000286820F480302860286820F4802009E002
:1035C0002868800328D560680028D2D024E02868C5
:1035D00040F480302860606888B1FEF7CFFE064670
:1035E00009E0286840F480202860F0E7FEF7C6FE76
:1035F000801B64286FD828688003F7D50CE0FEF79D
:10360000BDFE064605E000BFFEF7B8FE801B64283D
:10361000F0D828688003F7D4207841F20308D54E0B
:103620000C3E800769D5D9F80000396810F03800E1
:103630000ED0182801D188070AD0E06890B3296815
:1036400021F0190101432960FEF798FE824631E01E
:103650002868400702D5E06800288AD0E168286819
:1036600020F0190008432860FEF788FE824607E034
:10367000DFE000BFFEF782FEA0EB0A000228B9D807
:1036800028684007F6D500BFFEF772FE40451BD8FC
:103690002069402812D0316821F47C3141EA0030A1
:1036A00030602AE018E000BFFEF768FEA0EB0A00D9
:1036B00002289FD828684007F6D5E5E7306820F44F
:1036C0007C3040F40030EBE7207C316821F0FE4193
:1036D00041EA0060E4E70DE1286820F0010028607D
:1036E000FEF74CFE824605E0FEF748FEA0EB0A001E
:1036F00002288DD828684007F6D42078C0065DD50A
:10370000D9F80000DFF86CB2396800F03800ABF18E
:10371000040B082810D0182803D101F00300012859
:103720000AD0E0690028286838D040F0800028607E
:10373000FEF724FE824623E02868C00523D5E06911
:10374000802876D11FE0206A202821D0316821F01E
:10375000F84141EA8060306030E000BF94F820100A
:10376000DBF8002022F07C5242EA0161CBF8001025
:1037700024E000BFFEF702FEA0EB0A00022898D862
:103780002868C005F6D5FEF7F3FD4045E6D8DAE730
:10379000306820F0F84040F08040DCE720F0800006
:1037A0002860FEF7EBFD064605E000BFFEF7E6FDEC
:1037B000801B02289DD82868C005F7D42078000710
:1037C00029D56C486169643000298046016811D0B0
:1037D00041F001010160FEF7D1FD064605E000BFA2
:1037E000FEF7CCFD801B0228C9D8D8F8000080075E
:1037F000F6D510E021F001010160FEF7BFFD06469D
:1038000005E000BFFEF7BAFD801B022872D8D8F889
:1038100000008007F6D42078800623D5A069002810
:10382000286810D040F480502860FEF7A7FD0646B7
:1038300005E02CE1FEF7A2FD801B02285AD828687B
:103840008004F7D50EE020F480502860FEF796FD46
:10385000064604E0FEF792FD801B02284AD828683D
:103860008004F7D4207840074FD5DFF80C81D8F8D2
:10387000001041F48071C8F80010FEF77FFD064685
:1038800005E000BFFEF77AFD801B642832D8D8F827
:103890000000C005F6D5374EA068603601280AD072
:1038A00008B1052813D0306820F00100306030687E
:1038B00020F0040002E0306840F001003060A068B1
:1038C00041F2883A90B1FEF759FD80460AE030682F
:1038D00040F004003060EEE7FEF750FDA0EB080179
:1038E000514507D830688007F6D50EE0FEF746FD53
:1038F000804607E084E000BFFEF740FDA0EB080132
:1039000051457DD830688007F6D4606AB0B3DFF8DF
:103910006480D9F8001008F12008C1F3C20103291E
:103920006FD00228286820F08070286003D0FEF74E
:1039300025FD044680E0FEF721FD064605E000BFB8
:10394000FEF71CFD801B022873D828688001F7D47D
:10395000E26A40F2F331386854F8283F884340EA7D
:10396000021018433860217B4FF4FE0C22894FF07F
:10397000FE4704E0104402580048025889E0208ABB
:103980004902521E267DA1F5007189B2401EC2F384
:1039900008021143761E0CEA004001433E4807EA44
:1039A000066211433C4AC8F800100832016821F051
:1039B0000101016011684FF6F876236AB14341EACC
:1039C000C30111600168A26921F00C01114301607B
:1039D0000168E26921F0020111430160016841F4CC
:1039E00080310160016841F400310160016841F4F7
:1039F00080210160016841F001010160286801E057
:103A000017E01DE040F080702860FEF7B7FC044628
:103A100005E000BFFEF7B2FC001B022809D82868A9
:103A20008001F7D535E000BFFEF7A8FC001B022897
:103A300002D90320BDE8F09F28688001F4D428E073
:103A400039680128D8F8000021D0A26A01F00303E8
:103A500093421CD1E26AC1F305118A4217D1216B4E
:103A6000C0F30802491E8A4211D1616BC0F346229D
:103A7000491E91420BD1A16BC0F30642491E9142EF
:103A800005D1E16BC0F30660491E814201D00120DF
:103A9000D0E70020CEE700002C4402587047704762
:103AA000704710B5040003D094F83D0010B107E052
:103AB000012010BD002084F83C00204600F022F8D0
:103AC000022084F83D002068211D01F045FC012002
:103AD00084F8480084F83E0084F83F0084F84000F1
:103AE00084F8410084F8420084F8430084F84400DC
:103AF00084F8450084F8460084F8470084F83D00C7
:103B0000002010BD7047000090F83D10012901D041
:103B100001207047174A022180F83D100168CB68E8
:103B200043F00103CB600068904214D0B0F1804FA5
:103B300011D0114988420ED0104988420BD010494B
:103B4000884208D00F49884205D00F49884202D0E8
:103B50000E49884207D181680D4A1140062906D0D6
:103B6000B1F5803F03D0016841F001010160002000
:103B700070470000000001400004004000080040C1
:103B8000000C0040000401400018004000400140CB
:103B900007000100704770B5044600680025016900
:103BA000C943890715D4C168C943890711D4EA1EDE
:103BB000026101212177206880698007204602D0B8
:103BC000FFF7E8FF04E000F0A7F8204600F0A5F8B2
:103BD000257720680169C943490717D4C168C943DB
:103BE000490713D402216FF0040202612177206893
:103BF000806910F4407F204602D0FFF7CBFF04E03D
:103C000000F08AF8204600F088F8257720680169DE
:103C1000C943090716D4C168C943090712D404214E
:103C20006FF00802026121772068C0698007204692
:103C300002D0FFF7AFFF04E000F06EF8204600F07E
:103C40006CF8257720680169C943C90617D4C16893
:103C5000C943C90613D408216FF01002026121770D
:103C60002068C06910F4407F204602D0FFF792FF21
:103C700004E000F051F8204600F04FF82577206866
:103C80000169C943C90708D1C168C943C90704D13B
:103C9000891E0161204600F041F820680169C9438E
:103CA000090609D4C168C943090605D46FF080012B
:103CB00001612046FFF7F3FE20680169C943C90589
:103CC00009D4C168C943090605D46FF48071016144
:103CD0002046FFF7E3FE20680169C943490609D47D
:103CE000C168C943490605D46FF04001016120460F
:103CF00000F01EF820680169C94389060BD4C16829
:103D0000C943890607D46FF0200101612046BDE850
:103D10007040FFF7C5BE70BD70477047006803492B
:103D2000884201D1FEF730BB7047000000480140D7
:103D3000704730B590F88010012918D0012280F822
:103D400080202421C0F884100022202450F8641B15
:103D50000B680D6823F0005325F001050D6002602B
:103D600050F8641C0B6004620277104630BD0220DC
:103D700030BD7047704770B5044690F88000012848
:103D80001DD0012284F880202420C4F884002068FB
:103D90000568026822F0010202602068826822F051
:103DA00060620A438260204601F038FB22682021CD
:103DB00000201560C4F8841084F8800070BD0220D3
:103DC00070BD70B5044690F8800001281DD0012216
:103DD00084F880202420C4F88400206805680268E4
:103DE00022F0010202602068826822F060420A43E9
:103DF0008260204601F012FB22682021002015601D
:103E0000C4F8841084F8800070BD022070BD704733
:103E1000704770B501680446D0F884001025D4F8C6
:103E200088608968090618D5212816D120680830CD
:103E300050E8001F21F0800140E80012002AF5D16F
:103E4000A06F38B1FCF7C6FF20B1A06FFDF7B4FA40
:103E5000202821D0204601F065FC206880684006BB
:103E600018D5222E16D12068083050E8001F21F006
:103E7000400140E80012002AF5D1E06F38B1FCF7AC
:103E8000A9FF20B1E06FFDF797FA202804D0204663
:103E900001F01EFC002070BDC4F88C50032070BDE2
:103EA000704700002DE9F04103680446002540F604
:103EB0000F06D86919689A68304209D186067DD5FF
:103EC00001F0200602F080573E4377D0216F62E177
:103ED000C64EC74F16400F4037436FD0C70709D0B3
:103EE000CF0507D501271F62D4F88C3043F00103BA
:103EF000C4F88C3083070AD5D30708D0276802237B
:103F00003B62D4F88C3043F00403C4F88C30430790
:103F10000AD5D30708D0276804233B62D4F88C3035
:103F200043F00203C4F88C3003070CD501F02003E2
:103F3000334308D0266808233362D4F88C3043F02A
:103F40000803C4F88C3003050BD54B0109D526684E
:103F50004FF400633362D4F88C3043F02003C4F88C
:103F60008C30D4F88C30002B3AD0800609D501F083
:103F7000200002F08051084303D0216F09B1204690
:103F800088472168D4F88C008968490602D410F06B
:103F9000280F27D0204601F09BFB20688068400650
:103FA0001BD52068083050E8001F21F0400140E890
:103FB0000012002AF5D1E06F78B100E018E08D49D9
:103FC0000165E06FFDF7B6F8002809D0E06F016DDC
:103FD00000E02046BDE8F04108472046FFF760FFBB
:103FE000BDE8F0812046FFF75BFFC4F88C50F7E78F
:103FF000E76E2026012F7CD1C7067AD5CF0678D56B
:10400000102018622068806840067DD5E16F7A4AEA
:104010000868904234D0784A1832904230D0764ABC
:10402000303290422CD0744A4832904228D0724AA2
:104030006032904224D0704A7832904220D06E4A4A
:10404000903290421CD06C4AA832904218D06B4AF1
:10405000904215D0694A1832904211D0674A3032E6
:1040600090420DD0654A4832904209D0634A60328E
:10407000904205D0614A7832904201D05F4A903236
:1040800040680004000CABD0B4F85C208242A7D991
:10409000A4F85E00C869B0F5807F2ED0216851E891
:1040A000000F20F4807041E80002002AF6D1206859
:1040B000083050E8001F21F0010140E80012002AFA
:1040C000F5D12068083050E8001F21F0400140E899
:1040D0000012002AF5D1C4F88860E566216851E82D
:1040E000000F20F0100041E80002002AF6D1E06F36
:1040F00001E03BE008E0FCF76DFEB4F85C00B4F8CA
:104100005E10401A81B22DE0B4F85C00B4F85E1085
:10411000B4F85E20401A81B2002AB4D00029B2D08F
:10412000226852E8000F20F4907042E80003002B50
:10413000F6D1334B226802F1080252E8000F00EA80
:10414000030042E80007002FF4D1C4F88860E56658
:104150002567226852E8000F20F0100042E80003B3
:10416000002BF6D12046FFF704FE39E7C70209D538
:10417000570207D54FF4801018622046BDE8F04181
:10418000FFF746BE03060AD501F0800302F40002E1
:10419000134304D0616F00297FF41BAF20E7420670
:1041A00011D54A060FD52046026852E8001F21F0BB
:1041B000400142E80013002BF6D1C0F88460456747
:1041C00000F006FA0CE7020206D54A0004D52046A4
:1041D000BDE8F041FFF71BBEC001C6D50029C4DA17
:1041E0002046BDE8F041FFF7C5BD0000010000100A
:1041F000200100048955000810000240100402400C
:10420000FEFFFFEF10B5040003D0D4F8840010B116
:1042100007E0012010BD002084F88000204600F057
:1042200027F82420C4F884002068016821F00101E7
:104230000160204601F08EFA0128EBD0A06A10B18F
:10424000204601F00DF92068416821F49041416059
:104250002068816821F02A0181602068016841F0AE
:10426000010101602046BDE8104001F05DB9000089
:104270002DE9F041B6B0064614212FA8FCF7D2F87C
:10428000BC216846FCF7CEF85A4900243068022564
:10429000574F4FF4806888425DD1042024940090E9
:1042A0006846FEF7BBFA08B1FCF791FD50481430A0
:1042B000016841F008010160006800F008003490D6
:1042C000386840F00100386038680321CDE9305487
:1042D00000F001003490CDE932414FF4C0602F90DE
:1042E00045482FA9FDF720FF444D09214448474682
:1042F00085E81300C5E903486C612846AC61EC61B0
:104300002C62FDF7CFFB08B1FCF761FDDFF8EC8014
:104310000A223B49402308F17808F5671431AE635F
:10432000404688E89E00C8F81440C8F81840C8F80D
:104330001C40C8F82040FDF7B5FB08B1FCF747FD6D
:10434000C6F8788000220621C8F838608E20FEF773
:10435000B3F88E2046E02B49884245D16846009547
:104360001D94FEF75BFA08B1FCF731FD20480830D8
:10437000016841F480210160006800F480203490DD
:10438000386840F00200386038680721CDE93054C1
:1043900000F002003490CDE932414FF440602F909C
:1043A00019482FA9FDF7C0FE144D2D221749F035ED
:1043B000284629604FF44031C5E90124C5E9034886
:1043C0006C61AC61C5E907416C62FDF76BFB08B13C
:1043D000FCF7FDFCF56700220621AE632720FEF7FF
:1043E0006BF82720FEF75AF836B0BDE8F0810000E0
:1043F000E0440258000C005800000258EC09002468
:1044000008540258004800400004025810000240BE
:10441000F0B4D0F88830202B20D1E1B1DAB190F897
:104420008030012B1AD0036801260D4D002480F83E
:104430008060C466AB420BD05B681B0208D5046881
:1044400054E8003F43F0806344E80035002DF6D186
:10445000F0BC01F055BB0120F0BC70470220FBE727
:10446000000C0058704770472DE9F8430446D0F817
:1044700084001F4616460D46202852D1DDB1D6B124
:1044800094F8800001284CD0012084F8800021227B
:104490004FF00008C4F88C80C4F884201834FDF76D
:1044A0006DFF814654F8100CA687E687183CB0F5DE
:1044B000805F03D004E00120BDE8F883206920B1CB
:1044C0002E46002584F8808010E00026FAE780213F
:1044D000204601F069FBB8B9C6B116F8010B216896
:1044E0008862B4F85600401EA4F85600B4F856008E
:1044F0004B464FF0000200970028E8D14FF04001F2
:10450000204601F051FB38B10320D5E735F8020B06
:104510002168C0F30800E3E72020C4F884000020ED
:10452000CAE70220C8E7000070B50446D0F884004E
:10453000202844D181B37AB394F8800001283ED07A
:10454000A4F85420A4F856200025A06F012321656B
:10455000212184F88030C4F88C50C4F88410E8B16C
:1045600018491346C163A16F17480864A16F174823
:10457000C864A06F05652068A66F00F12802216D50
:104580003046FDF771FC48B11021C4F88C10202092
:1045900084F88050C4F88400012070BD2168402058
:1045A000086284F880502068083050E8001F41F00D
:1045B000800140E80012002AF5D1002070BD0220E1
:1045C00070BD000087560008C75600089D550008BA
:1045D00070477047FEE700002F4810B50068C169BA
:1045E000C1F30011F1B32D4910232D4A036208686D
:1045F00090423AD02A491831884236D02849303181
:10460000884232D02649483188422ED02449603130
:1046100088422AD022497831884226D020499031D8
:10462000884222D01E49A83188421ED01D498842A6
:104630001BD01C491831884217D01A4930318842A2
:1046400013D01849483188420FD01649603188424A
:104650000BD014497831884207D0124990318842F2
:1046600003D000E00EE00F49A83144680A48FFF784
:10467000D0FB0D49C4F1C800087001210B48006847
:1046800002F062FC0A49C8220348FFF7C1FEBDE8F8
:1046900010400148FFF706BCCC080024EC090024B8
:1046A0001000024010040240240800241C080024CA
:1046B000000000382DE9F84341484FF48061FBF7D2
:1046C000B1FE3F4C1027FF260025042127704D2204
:1046D00066705123A5705420E1700E462271C227E6
:1046E00063717821A071E07126726772A572E17220
:1046F00034482573FBF7B3FE0E26DFF8C880002789
:10470000607306E018F80710701C7F1CA155FFB2FB
:10471000C6B22C48FBF7A3FEB842F3D8701CA555CF
:10472000C6B228480E38FBF79AFEDFF89880711C55
:10473000A0550027A8F10E08CEB206E018F8071021
:10474000701C7F1CA155FFB2C6B21E480E38FBF785
:1047500086FEB842F2D8701CA555C5B21948C01FD4
:10476000FBF77DFE174F691C6055FF1F0026CDB279
:1047700005E0B95D681C761C6155F6B2C5B21148FA
:10478000C01FFBF76CFEB042F3D8AD1EE8B26070FC
:10479000801C01F08BFD6420FDF7B4FC0AA00068CA
:1047A0000090684601F06AFC28B108A001F05EFEA6
:1047B0000120BDE8F8830BA001F058FE0020F8E7C7
:1047C000000400248E8C0008200201004D51545436
:1047D00020434F4E4E454354204552524F520D0AEE
:1047E000000000004D51545420434F4E4E45435459
:1047F00020545255450D0A0010484FF4806108B509
:10480000FBF710FE0D48C02200210270417002200B
:1048100001F04CFD6420FDF775FC09A000680090D4
:10482000684601F02BFC20B106A001F01FFE01201C
:1048300008BD0AA001F01AFE002008BD00040024F3
:10484000D00000004D5154542050494E475245511C
:10485000204552524F520D0A000000004D51545451
:104860002050494E4752455120545255450D0A009B
:104870002DE9F8432948017801294DD12849002222
:1048800002700878302840D108468846C978837875
:1048900098F8012001EB0320111A85B2891E2846E1
:1048A0008FB202F0CDFA060009D00020414604E0A4
:1048B0000B18421C1B793354D0B2A842F8D33846A7
:1048C00002F0BEFA04000AD00020414605E02B1891
:1048D0000B44421C1B792354D0B2B842F7D311A029
:1048E0003B4632462946009401F0C0FD11A13046F6
:1048F000FBF7A3FD18B102200EA100F091F82046AD
:1049000002F060FA304602F05DFABDE8F843044870
:104910004FF48061FBF786BDBDE8F88328080024CA
:10492000540B002425642025732025642025730D55
:104930000A00000074657374000000002DE9FC415A
:10494000174688464FF4806105462448FBF76AFD08
:10495000224C8220FF212A0A0023207040466170E9
:10496000A270E5702371FBF77AFD062560710026C1
:1049700007E000BF18F80610681C761C6155F6B2F7
:10498000C5B24046FBF76BFDB042F3D8681E6755D1
:10499000C0B26070801C01F089FC6420FDF7B2FB9E
:1049A0000FA1D1E90001CDE90001A0788DF8020046
:1049B000E0788DF8030068468DF8047001F05EFB26
:1049C000414628B108A001F051FD0120BDE8FC815D
:1049D0000CA001F04BFD0020F8E7000000040024CB
:1049E00090030000000000004D51545420535542E4
:1049F0005343524942452022257322204552524FAB
:104A0000520D0A004D5154542053554253435249BC
:104A10004245202225732220545255450D0A00009C
:104A2000F8B50E46054621484FF48061FBF7FAFCC5
:104A30001E4CA22102202A0A0023217060703046F9
:104A4000A270E5702371FBF70AFD0625607100274F
:104A500005E0F15D681C7F1C6155FFB2C5B23046B0
:104A6000FBF7FDFCB842F4D8AD1EE8B26070801CC4
:104A700001F01CFC6420FDF745FB0DA000680090D0
:104A8000A0788DF80200E0788DF80300684601F008
:104A9000F5FA314620B107A001F0E8FC0120F8BD8D
:104AA0000BA001F0E3FC0020F8BD0000000400248E
:104AB000B00200004D51545420554E5355424143CD
:104AC0004B2022257322204552524F520D0A0000DE
:104AD0004D51545420554E53554241434B202225AD
:104AE000732220545255450D0A0000000D4808B5A8
:104AF000016841F400110160006800220F2100F4F8
:104B0000001000908120FDF7D7FC8120FDF7C6FC46
:104B100000220F218220FDF7CFFCBDE80840822053
:104B2000FDF7BCBCE0440258094808B5016841F0F3
:104B300001010160006800220E2100F001000090D8
:104B40000B20FDF7B9FCBDE808400B20FDF7A6BC23
:104B5000D84402581A4A00211A4810B502F07EFAC9
:104B6000194C0021164A24326060184802F076FA87
:104B7000134A0021A0601648483202F06FFA104A2A
:104B80000021E06013486C3202F068FA0C4A002100
:104B900020611148903202F061FA094A00216061F7
:104BA0000E48B43202F05AFAA0610548D83002F03B
:104BB000B5F9E0610248E83002F0B0F9206210BDBA
:104BC000488B00088551000800080024855C000817
:104BD0008D5E0008F95C00088D510008F54D000855
:104BE0002DE9F04186B014216846FBF71BFC2748ED
:104BF000016841F004010160016801F004010591C0
:104C0000016841F080010160016801F080010591B7
:104C1000016841F002010160016801F002010591A3
:104C2000016841F008010160016801F00801059187
:104C3000016841F00101016000680122144F0E215A
:104C400000F0010005903846FDF78CFBDFF844804A
:104C50004FF48066002231464046FDF783FB012475
:104C6000694600250E20CDE90004CDE9024538460D
:104C7000FDF75AFACDE90064CDE9024569464046A0
:104C8000FDF752FA06B0BDE8F0810000E04402589A
:104C900000080258000C02581848002110B5164CA4
:104CA0000C224FF4E1330460C0E90131C160C0E976
:104CB000041281610162416281624166FFF7A2FADA
:104CC00008B1FCF784F80D480021FFF77AF808B125
:104CD000FCF77DF809480021FFF74DF808B1FCF713
:104CE00076F80648FFF725F8002803D0BDE8104005
:104CF000FCF76DB810BD0000000C0058CC08002473
:104D00001848002110B5164C0C224FF4E133046012
:104D1000C0E90131C160C0E904128161C161016271
:104D200041628162FFF76EFA08B1FCF750F80D4856
:104D30000021FFF746F808B1FCF749F809480021BF
:104D4000FFF719F808B1FCF742F80648FEF7F1FF43
:104D5000002803D0BDE81040FCF739B810BD0000B2
:104D6000004800405C090024074810B5006801684D
:104D700041F0100101600549C8220348FFF748FBD4
:104D800003490020087010BDCC0800240000003842
:104D90002408002410B50C460A4601460B48FBF7D0
:104DA00028FB0B48016841F0F001016007492246E9
:104DB0000848FFF7B9FB0848006841680029FCD1A2
:104DC00004480068C1694906FCD510BDE000003800
:104DD00004540258CC080024640A002402494FF409
:104DE00080620248FFF714BB000000245C09002425
:104DF000FEE70000264D00244FF0FF360222334626
:104E00000321286A02F0CAF802E022A001F02EFB7A
:104E1000FFF750FC0028F8D123A000E027A001F004
:104E200025FB01222AA11046FFF788FD0028F5D1B5
:104E300029A000E021A001F019FB01222EA11046BB
:104E4000FFF77CFD0028F5D12DA001F00FFB34A069
:104E500001F00CFB286A042102F076F80FE000BF95
:104E6000FFF706FD641CE4B20A2C05D90024FFF705
:104E7000C3FC2FA001F0FAFA642002F017F8286AA8
:104E800002F041F8C007EBD1642002F00FF8B5E75B
:104E9000000800244D515454207761697420312E4C
:104EA0002E2E0D0A000000004D51545420434F4E49
:104EB0004E454354204F5645520D0A004D5154540F
:104EC000207761697420322E2E2E0D0A000000001A
:104ED000746F7069630000004D5154542053554263
:104EE0005343524942452022746F70696322204F18
:104EF0005645520D0A0000007465737400000000EE
:104F00004D51545420535542534352494245202257
:104F10007465737422204F5645520D0A000000003C
:104F20004D51545420494E4954204F56455200008B
:104F30004D5154545F50494E475245510D0A00009F
:104F4000FEE700002DE9F047454D044689464FF045
:104F5000000A2868C04380070AD0414E283E3068C6
:104F600020F080603060FDF709FA0746B04608E09F
:104F70000120BDE8F08700BFFDF700FAC01B022842
:104F800067D8D8F800000001F6D4206829684FF4EB
:104F9000FE0721F47C313E0241EA00302860207A8D
:104FA000A389B4F804C040022D4D2D495B1E227C1C
:104FB000ACF1010C1035091DA0F5007080B2521E35
:104FC000CCF3080C07EA034340EA0C00184306EA56
:104FD0000262104328600868626920F0C000104334
:104FE00008600A68A06922F0200202430A60281DB6
:104FF0000A6822F010020A6002684FF6F873E4694A
:105000009A4342EAC40202600868B9F1000F40F016
:1050100010020A6011D00868B9F1010F11D040F4F4
:1050200000100860D8F80000444640F08060C8F8DE
:105030000000FDF7A3F905460DE0086840F40020E4
:10504000EFE740F48010ECE7FDF798F9401B0228E9
:1050500001D903208DE720680001F5D5504688E787
:10506000284402582DE9F047454D044689464FF043
:10507000000A2868C04380070AD0414E283E3068A5
:1050800020F080503060FDF779F90746B04608E01F
:105090000120BDE8F08700BFFDF770F9C01B0228B2
:1050A00067D8D8F800008000F6D4208829684FF42B
:1050B000FE0721F07C713E0241EA00502860207A10
:1050C000A389B4F804C040022D4D2D495B1E227CFB
:1050D000ACF1010C1835091DA0F5007080B2521E0C
:1050E000CCF3080C07EA034340EA0C00184306EA35
:1050F0000262104328600868626920F4406010432F
:1051000008600A68A06922F4007202430A60281D40
:105110000A6822F480720A6002684FF6F873E46944
:105120009A4342EAC40202600868B9F1000F40F4F1
:1051300080720A6011D00868B9F1010F11D040F0F7
:1051400080700860D8F80000444640F08050C8F8ED
:105150000000FDF713F905460DE0086840F48000F3
:10516000EFE740F40000ECE7FDF708F9401B0228E8
:1051700001D903208DE720688000F5D5504688E7E7
:1051800028440258012001F091FEFBE7054C4FF442
:105190007A7502212046FDF7DDF8284601F086FEEB
:1051A000F7E70000000802584FF0E02010B5006952
:1051B00003F002FB012803D0BDE8104003F026B83D
:1051C00010BD000070B59CB04C216846FBF72AF971
:1051D000202113A8FBF726F90220FDF79FF92249A9
:1051E0000A68224822F001020A600968016821F475
:1051F000404141F4004101600168002401F4404154
:105200001B9101688904FCD5022009900DF1280C3E
:1052100001210091C2030192052378268CE8490000
:1052200004210D9008251294CDE91054CDE90E010A
:105230006846FEF79BF908B172B6FEE740201A9067
:105240003F210301CDE916500322CDE9180313AB2A
:1052500013A883E816000221FDF74AFF002801D0B9
:1052600072B6FEE71CB070BD2C04005818480258F6
:105270002C48F0B52C4A016841F4700101601068B7
:1052800000F00F00072804D2106820F00F00C01DA6
:10529000106026490020254C10340B68244D43F043
:1052A00001030B6020600B682B400B60136803F058
:1052B0000F03072B04D9136823F00F03DB1D1360C2
:1052C0001A4C1C4A18341C4B261D371D2060174CE5
:1052D0001A4D28343060261D3860371D23603B1D71
:1052E00035601C1D3A60251D2E1D1860331D22607F
:1052F0002860326018600A680C4B114C22F480223E
:1053000060330A60186020686FF30F00B0F1005F2F
:1053100003D20C490120C1F8080143F2D2000A4926
:105320000860F0BD88ED00E0002000520044025803
:105330007FEDF6EA80020101000202020000FF0197
:105340000010005C00800051004000520148FEF750
:1053500022BC0000540F00242DE9F047274B4FF0EA
:10536000804A274D02689842264E274F274C09D085
:10537000504507D0A84205D0B04203D0B84201D072
:10538000A04205D1D1F804C022F070024CEA02021A
:10539000DFF87CC0DFF87C809842DFF87C900FD08B
:1053A00050450DD0A8420BD0B04209D0B84207D02A
:1053B000A04205D0604503D0404501D0484503D107
:1053C000CD6822F440722A434D6922F080022A43BC
:1053D000026098428A68C2620A68826207D0A0426C
:1053E00005D0604503D0404501D0484501D1096949
:1053F000016301214161BDE8F08700000000014028
:105400000004004000080040000C0040000401407F
:1054100000400140004401400048014030B5416E69
:10542000B9B101680D4B03F108048A688968C2F3B9
:105430004262490F5D5C615C2D01B5FBF1F1A0F8A2
:105440006A10995CA25C0901B1FBF2F1A0F8681046
:1054500030BD0121A0F86A10F8E70000708C000848
:1054600090F82810C90706D00168C36A4A6822F478
:1054700000321A434A6090F82810890706D501685F
:10548000036B4A6822F480321A434A6090F828106D
:10549000490706D50168436B4A6822F480221A4303
:1054A0004A6090F82810090706D50168836B4A689E
:1054B00022F400421A434A6090F82810C90606D523
:1054C0000168C36B8A6822F480521A438A6090F89C
:1054D0002810890606D50168036C8A6822F40052F8
:1054E0001A438A6090F82810490611D50168436C68
:1054F0004A6822F480121A434A60416CB1F5801F59
:1055000006D10168836C4A6822F4C0021A434A60DB
:1055100090F82810090606D50168C26C486820F486
:105520000020104348607047F8B500260446C0F8D4
:105530008C60FCF723FF054620686FF07E4700680B
:10554000000708D500222B464FF400112046009793
:1055500000F02AFB60B92068006840070AD50022E5
:105560002B464FF480012046009700F01DFB08B148
:105570000320F8BD2020C4F88400C4F88800E66643
:10558000002084F88060F8BD10B5806B0021A0F881
:105590005E10A0F85610FEF783FC10BD70B5846B4A
:1055A00000252168D4F88400D4F888608968090649
:1055B00006D5212804D1A4F85650204600F0B2F8B0
:1055C00020688068400606D5222E04D1A4F85E50DB
:1055D000204600F07DF8D4F88C0040F01000C4F8AC
:1055E0008C002046FEF75CFC70BD10B5C169806B75
:1055F000B1F5807F2ED00021A0F85E10026852E83D
:10560000001F21F4807142E80013002BF6D10168DD
:10561000083151E8002F22F0010241E80023002B5D
:10562000F5D10168083151E8002F22F0400241E82D
:105630000023002BF5D12021C0F88810C16E01296C
:1056400008D1026852E8001F21F0100142E800135F
:10565000002BF6D1C16E012902D0FEF703FF10BD69
:10566000B0F85C10FEF785FB10BD10B5806BC16E05
:10567000012902D0FEF7F7FE10BDB0F85C10490812
:10568000FEF777FB10BD10B5C169806BB1F5807F67
:1056900016D00021A0F856100168083151E8002FFB
:1056A00022F0800241E80023002BF5D1026852E885
:1056B000001F41F0400142E80013002BF6D110BD5D
:1056C000FEF786FF10BD10B5806BFEF782FF10BDA0
:1056D00010B5026852E8001F21F4907142E80013EF
:1056E000002BF6D10E4B0268083252E8001F194019
:1056F00042E80014002CF6D1C16E012908D10268DD
:1057000052E8001F21F0100142E80013002BF6D1EF
:1057100000212022C0F88820C166016710BD00006A
:10572000FEFFFFEF026852E8001F21F0C00142E8CF
:105730000013002BF6D10168083151E8002F22F444
:10574000000241E80023002BF5D12021C0F884108D
:10575000704700002DE9F04304468068D84E87B0BA
:10576000D84B2168D4E90427D4F81CC010430A6838
:10577000002547EA0C073843324002430A6020689C
:10578000E268416821F44051114341602268A169F7
:105790009A4201D0206A01439768DFF82CC3CB4EB0
:1057A000CB4807EA0C070F4397602168676ACA6A0B
:1057B00022F00F023A43CA622268B2420ED1006858
:1057C00000F03800182873D047DCB8B3082879D027
:1057D00010286FD178E028287ED17BE0BD498A422D
:1057E00009D1006800F00700062875D2DFE800F054
:1057F000546A6C6E7072B8498A4209D1006800F030
:105800000700062868D2DFE800F0475D5F61636546
:10581000B2498A4209D1006800F0070006285BD22D
:10582000DFE800F03A5052545658AD498A420BD145
:10583000006800F0070006284ED200E010E0DFE824
:1058400000F02B4143454749A6498A420AD10068E6
:1058500000F03800182839D0B7DD2028BBD13CE053
:1058600001203AE0A0498A4209D1006800F007000F
:10587000062831D2DFE800F01026282A2C2E9B497A
:105880008A420BD1006800F00700062824D2DFE826
:1058900000F003191B1D1F2100201EE09A421BD19E
:1058A0008B48001D006800F00700062814D202E0B3
:1058B0000CE007E010E0DFE800F0030507090B0D3E
:1058C00002200AE0042008E0082006E0102004E09E
:1058D000202002E0402000E080208549DFF814828B
:1058E0009A42854A4FF400434FEA21174FF00006D1
:1058F0004ED110281AD006DC022809D004280BD07B
:1059000008287CD10DE020283ED0402877D13DE00A
:10591000FCF72EFE014610E06846FCF73BFE0199BD
:105920000BE003A8FCF7D8FE049906E01068800697
:1059300005D51068C0F3C100C140002970D0606A6D
:10594000676838F8102007EB4703B1FBF2F0834299
:1059500055D8B0EB073F52D8002308461946FAF74E
:1059600017FD02467808130E120243EA01211018AF
:105970003A4671410023FAF70BFD604AA0F54071E9
:1059800091423CD821688FE03946D8E71946D6E7DE
:10599000D4F81CC04FF6EF799C4546D1082819D0A1
:1059A00005DC58B101280CD0042875D10DE0102871
:1059B00015D0202835D040286ED134E0FDF716FDF3
:1059C00001E0FDF725FD014610E06846FCF7E2FD29
:1059D00001990BE003A8FCF77FFE049906E010682C
:1059E000800604D51068C0F3C100C140C1B1636A2C
:1059F000606838F81330B1FBF3F1490000E04BE088
:105A000001EB5001B1FBF0F0A0F11001494543D882
:105A10004FF6F0732168C0F342021840104343E090
:105A200043E03946E3E71946E1E7082819D005DCE9
:105A300058B101280CD004282ED10DE0102815D023
:105A400020282BD0402827D12AE0FDF7CFFC01E009
:105A5000FDF7DEFC014610E06846FCF79BFD01996E
:105A60000BE003A8FCF738FE049906E010688006F6
:105A700004D51068C0F3C100C140B1B1636A606869
:105A800038F81330B1FBF3F101EB5001B1FBF0F04A
:105A9000A0F11001494505D9012506E03946EDE799
:105AA0001946EBE7216880B2C8600120A4F86A00BB
:105AB000A4F8680028462667666707B0BDE8F0834B
:105AC000F369FFCF000C0058FFF4FF1100100140F4
:105AD000544402580044004000480040004C00403C
